:020000040800F2
:100000000007002029020008E5180008ED17000885
:10001000E1180008AD040008E91A0008000000001B
:10002000000000000000000000000000251A000889
:10003000B104000800000000E9180008291A0008AF
:10004000430200084302000843020008430200087C
:10005000430200084302000843020008430200086C
:10006000430200084302000843020008430200085C
:10007000430200084302000843020008430200084C
:10008000430200084302000843020008430200083C
:10009000430200084302000843020008430200082C
:1000A000430200084302000843020008430200081C
:1000B000430200084302000843020008430200080C
:1000C000430200084302000843020008ED1800083C
:1000D00043020008430200084302000843020008EC
:1000E00043020008430200084302000843020008DC
:1000F00043020008430200084302000843020008CC
:1001000043020008430200084302000843020008BB
:1001100043020008430200084302000843020008AB
:10012000430200084302000843020008430200089B
:10013000430200084302000843020008430200088B
:10014000430200084302000843020008430200087B
:10015000430200084302000843020008430200086B
:10016000430200084302000843020008430200085B
:100170004302000843020008430200080000000098
:10018000430200084302000800F002F800F03CF8C7
:100190000AA090E8000C82448344AAF10107DA45E2
:1001A00001D100F031F8AFF2090EBAE80F0013F0F8
:1001B000010F18BFFB1A43F001031847F41C00009D
:1001C000141D0000103A24BF78C878C1FAD852072D
:1001D00024BF30C830C144BF04680C6070470000C1
:1001E0000023002400250026103A28BF78C1FBD840
:1001F000520728BF30C148BF0B6070471FB501F0E0
:1002000041FE1FBD10B510BD00F0A9F81146FFF763
:10021000F5FF01F06BFC00F0C7F803B4FFF7F2FF45
:1002200003BC00F0CFF800000948804709480047A8
:10023000FEE7FEE7FEE7FEE7FEE7FEE7FEE7FEE796
:10024000FEE7FEE704480549054A064B70470000F3
:10025000D51A0008890100080001002000070020CD
:10026000000300200003002053EA020C00F0698024
:100270002DE9F04B4FF00006002B1FBFB3FA83F5BA
:1002800003FA05F424FA05F65E4012BF1643B2FAEB
:1002900082F502FA05F4C5F120051EBF22FA05FC1D
:1002A00044EA0C04203556EA044C4FEA144418BFC3
:1002B000641C4FF000084FF00009904271EB030CF2
:1002C00039D3002919BFB1FA81F701FA07F6B0FA5C
:1002D00080F700FA07F6C7F120071EBF20FA07FCD7
:1002E00046EA0C062037B6FBF4FCA7EB0507103FE7
:1002F00007F01F0BCBF120062CFA06F60CFA0BFBCD
:1003000044BFB3460026202FA4BF5E464FF0000B2B
:100310005BEA060C08BF4FF0010B19EB0B0948EB29
:100320000608ABFB027C06FB02CC0BFB03CCC01B1C
:1003300071EB0C01C1E70B46024641464846BDE859
:10034000F08B13B5084318BF4FF0FF300146AFF3F1
:100350000080BDE81C407047704770477047754685
:1003600000F02CF8AE4605006946534620F0070021
:10037000854618B020B5FFF765FFBDE820404FF077
:1003800000064FF000074FF000084FF0000BAC469E
:10039000ACE8C009ACE8C009ACE8C009ACE8C009E9
:1003A00021F007018D46704710B50446AFF3008079
:1003B0002046BDE81040FFF730BF000000487047FE
:1003C0001000002001491820ABBEFEE72600020005
:1003D00070470000B0B50024C4F20204204610218A
:1003E000002200F051F97E20B62100F025F82046C9
:1003F0001021012200F048F904F58065284601210A
:10040000002200F041F91420B62100F015F828462A
:100410000121012200F038F920461021002200F0CD
:1004200033F97D20042100F007F820461021012235
:10043000BDE8B04000F028B9B0B582B00024C4F2E5
:10044000020400F07F008DF806108DF807002046AA
:100450001021002200F018F940F2A005C2F20005B8
:100460000DF10701284601224FF0FF3300F0C2FED4
:10047000284600F071FC0328FAD040F2A005C2F231
:1004800000050DF10601284601224FF0FF3300F070
:10049000B1FE00BF284600F05FFC0328FAD02046DA
:1004A0001021012200F0F0F802B0B0BDFEE700001C
:1004B0007047000072B600BFFEE7000090F83510EC
:1004C000022909D1052180F835100068016821F062
:1004D00001010160002070478021416501207047C3
:1004E0002DE9F04F82B000F13E4241F6004502F1A5
:1004F000FF77C4F20205082243F6004E4FEAB72602
:10050000A84208BF0722C4F2010E072E38BF4FEAE7
:10051000B7220125002600274FF00008009208E0CE
:1005200008F101080437B8F1100F06F1020600F0D7
:10053000A7800C6805FA08F914EA090FF0D0D1F881
:1005400004B003220BF0030CACF10104B240012C07
:100550006FEA020A10D88268CC6802EA0A02B44044
:10056000224382604268CBF3001422EA090204FAB3
:1005700008F42243426005E0BCF1030F02D14FF0C2
:10058000030C20E0C2688C6802EA0A02B4402243ED
:10059000BCF1020FC26016D16FF0030202EA5802EA
:1005A0000244D2F820C007F01C050F230C69AB40B1
:1005B0002CEA030304FA05F52B431362D1F804B0C7
:1005C00001250BF0030C02680CFA06F302EA0A029A
:1005D0001A431BF4403F0260A2D0002243F64403BA
:1005E0000192C4F202031A684FF6084C42F48042AA
:1005F0001A601A68CFF6FF7C02F480420192019AD9
:1006000028F00302724452F80C3007F00C050F2456
:10061000AC40A343009C04FA05F52B4342F80C3090
:10062000DEF808204B6842EA090543F60C4CDC0270
:1006300058BF22EA0905CEF80850C4F2010CDCF8D4
:1006400000209C0242EA090558BF22EA0905CCF8BD
:100650000050DEF804209C0342EA090558BF22EA54
:100660000905CEF80450DEF80020DB0342EA090554
:1006700058BF22EA0905CEF80050012550E700BF17
:1006800002B0BDE8F08F0000002A08BF09048161B4
:100690007047000040F2F800C2F2000000687047A6
:1006A00040F2000040F2F801C2F20000C2F2000184
:1006B00000780A68104408607047000080B543F66F
:1006C0000040C4F20200016841F400710160016859
:1006D00041F480610160016841F480710160032090
:1006E00000F088F80F2000F005F800F027F800204F
:1006F00080BD000070B540F20006C2F2000640F274
:1007000008013278C2F200014FF47A730968B3FB32
:10071000F2F20446B1FBF2F1084601F051F80F2C59
:100720004FF0010508D838B94FF0FF3021460022BC
:10073000002500F033F87460284670BD82B00020B8
:1007400043F640010190C4F202014A6842F480423B
:100750004A604A6802F480420192019A0090086857
:1007600040F080500860086800F0805000900098C9
:1007700002B07047002848BF7047C1B200F01F00A8
:10078000012202FA00F04EF20012CEF2000242EA1A
:10079000D10121F0030108607047000010B54EF64A
:1007A0000C5CCEF2000CDCF80030C3F3022E8EF0AD
:1007B0000704042C28BF0424BEF103034FF0FF3EBE
:1007C0000EFA04F438BF0023A14399400EFA03F354
:1007D0009A43114300F00F0200F160430901043A0B
:1007E00003F564436244002848BF02F10C0319700A
:1007F00010BD00004EF60C51CEF200010A684FF613
:10080000FF031A4060F30A2242F0806040F0FD705E
:10081000086070472DE9F041002800F08B8043F616
:100820000808C4F202080446D8F8F8030D4600F0A0
:100830000700884207D288F8F853D8F8F80300F088
:100840000700A84276D12068810717D5410705D552
:10085000D8F8001041F4E051C8F80010010705D5A0
:10086000D8F8001041F46041C8F80010D8F8001022
:10087000A26821F0F0011143C8F80010C0073FD171
:10088000D8F8F80300F00700A84207D988F8F85311
:10089000D8F8F80300F00700A8424BD120684107C0
:1008A00007D5D8F80010E26821F4E0511143C8F8E8
:1008B0000010000708D5D8F80000216920F4604036
:1008C00040EAC100C8F8000000F054F8D8F8001061
:1008D00041F69E62C1F30311C0F60002515C40F282
:1008E000080220FA01F140F20400C2F200000068A0
:1008F000C2F200021160FFF7FDFE0020BDE8F081AA
:100900006068811E022907D258F8081C89015CBF63
:100910000120BDE8F08111E0012807D158F8081C3A
:1009200089035CBF0120BDE8F08107E058F8081C8E
:10093000890703D40120BDE8F08100BFD8F800107A
:1009400021F003010843C8F80000FFF7A3FE0646A4
:1009500041F28837D8F80000616800F00C00B0EB75
:10096000810F8DD0FFF796FE801BB842F2D903208D
:10097000BDE8F08110B543F60404C4F202046068D7
:1009800000F00C0008280BD0042819BF42F20040E8
:10099000C0F2F40041F60030C0F2B70010BD00BF55
:1009A000206821682368490241F60031C0F2B7018E
:1009B00000F03F02C3F388105CBF42F20041C0F276
:1009C000F401A1FB00010023FFF74EFC2168022285
:1009D000C1F3014102EB4101B0FBF1F010BD000099
:1009E0002DE9F04182B0002868D00446007843F633
:1009F0000006C007C4F202060BD0B06800F00C007D
:100A0000042840F09F803068800302D56068002889
:100A100054D0207880071AD5B06810F00C0F09D098
:100A2000B06800F00C00082840F0A6807068400212
:100A300000F1A2803068800702D5E06801283DD12E
:100A40003068216920F0F80040EAC1003060207869
:100A5000000737D4207840074CD4A56955B3B06857
:100A600000F00C00082840F0BB80012D26D07068F3
:100A7000E16900F480028A4220D1216A00F03F023D
:100A80008A421BD147F6C071626A0140B1EB821FF6
:100A900014D1A16A4FF6FF73C903994300F44032A1
:100AA000A1F580318A4209D1E16A00F07060B0EBB3
:100AB000016F03D1002002B0BDE8F081012002B037
:100AC000BDE8F0816069002840F20000C4F24720D0
:100AD00076D00121C0F8801EFFF7DCFD054600BF7F
:100AE000706F8007B6D4FFF7D5FD401B0228F7D9F9
:100AF000DDE000BF306C10F080580AD1002001907A
:100B0000306C40F080503064306C00F080500190C8
:100B1000019847F20007C4F200073868C00541D4C5
:100B2000386840F480703860FFF7B4FD054600BFB8
:100B30003868C00536D4FFF7ADFD401B0228F7D951
:100B4000B5E000BFB06800F00C00082803D1706861
:100B500040023FF558AF6068B0F5803F07D0B0F570
:100B6000A02F40F08D80306840F4802030603068E5
:100B700040F4803030608DE0E068002852D00020E2
:100B8000C4F2472001210160FFF784FD054600BF44
:100B9000306880073FF554AFFFF77CFD401B02280B
:100BA000F6D984E0A068012805D005284ED1306F21
:100BB00040F004003067306F40F0010030674FE0D4
:100BC0000021C0F8801EFFF765FD0546706F8007A5
:100BD0007FF540AFFFF75EFD401B0228F6D966E0C7
:100BE0000027C4F2472700203866FFF753FD022D87
:100BF00005460BD1306880015ED5FFF74BFD401BE9
:100C000002284FF00300F5D955E700BF3068800196
:100C10007FF550AFFFF73EFD401B02284FF0030069
:100C2000F4D948E70020C4F2472000210160FFF713
:100C300031FD0546306880077FF509AFFFF72AFDD3
:100C4000401B02284FF00300F4D934E7316F00282D
:100C500021F001013167316F21F0040131674DD07E
:100C6000FFF718FD054641F2883700BF306F800757
:100C700056D4FFF70FFD401BB842F7D917E000BF6D
:100C80003168002821F480313160316821F48021FD
:100C900031604FD0FFF7FEFC054600BF306880038F
:100CA0003FF5B7AEFFF7F6FC401B6428F6D90320EA
:100CB00002B0BDE8F08100BF04F11C052FCD084350
:100CC00040EA8210D9034FF6FF729143A1F58031BB
:100CD00040EA05600843706001203866FFF7DAFCDF
:100CE000044600BF306880013FF5E4AEFFF7D2FC58
:100CF000001B02284FF00300F4D9DCE6FFF7CAFC22
:100D0000054641F2883700BF306F800708D5FFF7EE
:100D1000C1FC401BB8424FF00300F5D9CBE600BF41
:100D2000B8F1000F7FF499AE306C20F08050306441
:100D300093E600BFFFF7AEFC054600BF30688003B6
:100D40007FF567AEFFF7A6FC401B64284FF0030059
:100D5000F4D9B0E67047000090F8510070470000E9
:100D6000B0B582B0044600684168826812F0400362
:100D700005D112F0010518BF11F0400512D19507F9
:100D800008D511F0800505D0616C204602B0BDE8A1
:100D9000B040084712F4B07F18BF11F0200507D10A
:100DA00002B0B0BD216C204602B0BDE8B04008479B
:100DB000BBB194F85130032B08D100210191C168D7
:100DC000019180680190019802B0B0BD636D43F05D
:100DD0000403636500230193C3680193836801934F
:100DE000019B12F0200302F4807203D18AB9626D74
:100DF000DAB9D5E7636D43F001036365002301931E
:100E000083680193036823F040030360019B002A79
:100E1000EDD0626D42F008026265002201928268A4
:100E20000192019A626D002ABAD04268890722F0C5
:100E3000E00242604FF0010284F8512020D0416866
:100E400041F6F90521F003014160E06CC0F60005B0
:100E500038B10565FFF732FB18B1606D40F0400016
:100E60006065A06C00289BD00565FFF727FB002874
:100E70003FF496AF606D40F04000606502B0B0BDD9
:100E8000204602B0BDE8B040FFF764BF70B538B18E
:100E90000446406A30B10020206104F1140007E0EC
:100EA000012070BD6068B0F5827F03D004F11C00A2
:100EB000002101600026A66294F8510020B9204666
:100EC00084F8506000F03CF8022084F8510094E867
:100ED0000F0001F48271056802F4044225F0400518
:100EE0000560114403F400622369114403F0020217
:100EF0006369114403F00102A369E569114403F435
:100F00000072114405F03802256A114405F0800290
:100F1000A56A114305F4005211430160626A04217D
:100F200001EA134102F0100211444160C16921F449
:100F30000061C1610120666584F85100304670BDD2
:100F40002DE9F04385B0006843F20005C4F20105C5
:100F5000A84203D005B0BDE8F08300BF002643F6E9
:100F600030000096C4F2020041696C4641F48051A1
:100F7000416141694FF0020801F4805100910099EC
:100F8000009601684FF0030941F002010160016819
:100F9000052701F00201009100990096016841F0D7
:100FA000010101600068214600F0010000900098F6
:100FB0001820009005F55440CDE90186CDF80C903D
:100FC0000497FFF78DFA8020CDE9000805F5504021
:100FD0002146CDE902690497FFF782FA2320002118
:100FE0000022FFF7DBFB2320FFF7C4FB05B0BDE8C1
:100FF000F08300002DE9F04182B0044690F85100E2
:10100000012819D160681D4617460E46B0F5827F4B
:1010100001D1A068A0B1FFF73DFB8046002E4FF044
:10102000010018BF002F03D102B0BDE8F08100BF5E
:1010300094F85000012811D1022002B0BDE8F081DF
:10104000042084F851002046314632463B46009544
:1010500000F00EFA02B0BDE8F08100BF012084F874
:1010600050000420002184F851006165A663A78721
:10107000E7872163A186E186A2682068B2F5004F68
:101080002164616438D00168490640D5E168E08F89
:10109000002944D000287BD0681C0CD11BE000BF85
:1010A000C068A16B21F8020BA163E08F0138E087D3
:1010B000E08F00286CD020688168C907F0D1FFF765
:1010C000E9FAA0EB0800A842F2D342E0FFF7E2FA07
:1010D000E08F00285CD020688168C907F6D0C0681E
:1010E000A16B21F8020BA163E08F0138E087E08F4C
:1010F0000028F0D14CE000BF016821F04001016000
:10110000016821F48041016001684906BED401688C
:1011100041F040010160E168E08F0029BAD1B8B325
:10112000681C0CD124E000BF007BA16B0870A06B91
:101130000130A063E08F0138E087E08F40B3206882
:101140008168C907F0D1FFF7A5FAA0EB0800A84213
:10115000F3D3012084F85100002084F850000320CC
:1011600002B0BDE8F08100BFFFF794FAE08F78B1DC
:1011700020688168C907F7D0007BA16B0870A06B5D
:101180000130A063E08F0138E087E08F0028EFD1C5
:101190006068B0F5827F0ED1A068B0F5004F02D034
:1011A000B0F5806F0AD12168B0F5806F0A6822F02F
:1011B00040020A6002D12046012101E02046802140
:1011C00000222B46CDF8008000F09CFB28B1606D1A
:1011D00040F02000606520206065012084F8510007
:1011E000002084F85000606D002818BF012002B074
:1011F000BDE8F0812DE9F04184B01D4616460F464A
:101200000446FFF747FA94F8511001290ED18046A1
:10121000002F4FF0010018BF002E03D104B0BDE82D
:10122000F08100BF94F85000012803D1022004B0DF
:10123000BDE8F081012084F850000320002184F8EB
:10124000510061652763A686E686A163A187E187D1
:10125000A0682164B0F5004F2068616407D101687F
:1012600021F040010160016841F4804101600168A2
:10127000490603D4016841F0400101606168731EB2
:10128000E268B1FA81F1B3FA83F349095B09B2F577
:10129000006F41EA030139D131B137F8021BC16057
:1012A0002763E08E0138E086E08E002870D0681C4D
:1012B0000BD11AE0216B31F8022BC2602163E08E62
:1012C0000138E086E08E002862D0206881688907B6
:1012D000F0D4FFF7DFF9A0EB0800A842F2D338E022
:1012E000FFF7D8F9E08E002852D02068816889077E
:1012F000F6D5216B31F8022BC2602163E08E0138F4
:10130000E086E08E0028F0D142E000BF39B13978A4
:101310000173206B01302063E08E0138E086E08E9F
:10132000B0B3681C0BD123E0216B09780173206BEB
:1013300001302063E08E0138E086E08E40B3206803
:1013400081688907F0D4FFF7A5F9A0EB0800A8424F
:10135000F3D3012084F85100002084F850000320CA
:1013600004B0BDE8F08100BFFFF794F9E08E78B1DA
:10137000206881688907F7D5216B09780173206B94
:1013800001302063E08E0138E086E08E0028EFD146
:101390002046022101222B46CDF8008000F0B2FA4F
:1013A000E0B1606D40F02000606520206065A068BD
:1013B00038B9002002902068C168029180680290CC
:1013C0000298012084F85100002084F85000606DDC
:1013D000002818BF012004B0BDE8F08140F20800E9
:1013E000C2F20000006849F68171C1F25E61A0FBA3
:1013F0000101480D4FF47A71484303906068B0F5DD
:10140000827F0BD12046802100222B46CDF8008020
:1014100000F078FA0028C4D1C9E700BF039800287B
:10142000C5D0039801380390206880680006BED5B7
:1014300003980028BBD00398013803902068806887
:101440000006B4D503980028B1D003980138039062
:10145000206880680006AAD503980028A7D00398C2
:1014600001380390206880680006D7D49FE7000009
:101470002DE9F04383B01E4615460F460446FFF79C
:1014800009F994F851108146012909D1002F4FF034
:10149000010018BF002D0FD103B0BDE8F08300BFDD
:1014A0006068B0F5827F0DD1A06800284FF002007F
:1014B00008BF0429F0D1E9E7002EEDD094F85000E0
:1014C000012803D1022003B0BDE8F083012084F895
:1014D000500094F85100002104281CBF052084F816
:1014E00051006165A563E687A6872763E6862068C5
:1014F000A686216461640168490603D4016841F04D
:10150000400101606168731EE268B1FA81F1B3FACB
:1015100083F3DDF8288049095B09B2F5006F41EAE1
:10152000030165D131B137F8021BC1602763E08E3A
:101530000138E086012518F1010032D102E000BF38
:10154000FFF7A8F8E08E18B9E08F002800F0B88007
:101550002068816889070CD5E18E51B1012D08D131
:10156000216B002531F8022BC2602163E18E013925
:10157000E1868168C907E3D0E18F0029E0D0C06827
:10158000A16B012521F8020BA163E08F0138E087F0
:10159000D6E700BFFFF77EF8A0EB0900404580F0DA
:1015A000A580E08E18B9E08F002800F089802068BF
:1015B000816889070CD5E18E51B1012D08D1216BCD
:1015C000002531F8022BC2602163E18E0139E186EA
:1015D0008168C907DED0E18F0029DBD0C068A16B2C
:1015E000012521F8020BA163E08F0138E087D1E7E4
:1015F00039B139780173206B01302063E08E0138F6
:10160000E086012518F1010032D101E0FFF742F830
:10161000E08E10B9E08F002852D0206881688907D9
:101620000ED5E18E61B1012D0AD1216B002509781B
:101630000173216B206801312163E18E0139E1865C
:101640008168C907E2D0E18F0029DFD0C068A16BB3
:1016500001250870A06B0130A063E08F0138E0879E
:10166000D4E700BFFFF716F8A0EB090040453DD2D4
:10167000E08E08B9E08F18B32068816889070ED51D
:10168000E18E61B1012D0AD1216B0025097801732A
:10169000216B206801312163E18E0139E186816887
:1016A000C907DFD0E18F0029DCD0C068A16B01251C
:1016B0000870A06B0130A063E08F0138E087D1E7AC
:1016C0002046022101224346CDF8009000F01AF98D
:1016D000B0B1606D40F020006065202060650020A2
:1016E00084F85000012003B0BDE8F083012084F8A5
:1016F0005100002084F85000032003B0BDE8F083BF
:1017000040F20800C2F20000006849F68171C1F29F
:101710005E61A0FB0101480D4FF47A7148430290CD
:101720006068B0F5827F21D12046802100224346A7
:10173000CDF8009000F0E6F80028CAD1A06838B9CA
:10174000002001902068C168019180680190019893
:10175000012084F85100002084F85000606D0028BA
:1017600018BF012003B0BDE8F08300BF0298002835
:10177000E4D0029801380290206880680006DDD528
:1017800002980028DAD00298013802902068806818
:101790000006D3D502980028D0D0029801380290D4
:1017A000206880680006C9D502980028C6D0029833
:1017B00001380290206880680006D7D4BEE7000098
:1017C000411E0020B0EB116F1CBF012070474EF28C
:1017D0001002CEF2000251604EF62351CEF200010B
:1017E000F0230B700721906011607047FEE7000046
:1017F0002DE9F04186B0002743F6300005970097A9
:10180000C4F202000168002441F002010160016895
:10181000C4F2020401F002010091009900970168EE
:10182000012241F00101016001684FF0100801F050
:1018300001010091009900970168012641F08001A3
:1018400001600068102100F08000009000982046A0
:10185000FEF71AFF04F58065284601210122FEF7F4
:1018600013FFCDE901860DF1040820464146CDE97C
:101870000367FEF735FE28464146CDE90166CDE90E
:101880000367FEF72DFE06B0BDE8F081B0B540F26B
:10189000A00043F20001C2F20000C4F201014FF4C3
:1018A0008272002380E80E0000F10C014FF0020C60
:1018B0004FF0010E4FF40074382581E808500A21DA
:1018C000C0E90645C0E90833C0E90A31FFF7DEFA8E
:1018D000002808BFB0BDBDE8B040FEF7EBBD00007A
:1018E000FEE70000FEE700007047000040F2A000A5
:1018F000C2F20000FFF734BA806B0021C187C186B5
:10190000FFF728BA2DE9F04381B0089C98461546A8
:101910000E468146FEF7BEFE201A00EB0804FEF7D5
:10192000B9FE40F20801C2F200010968C1F3CB31EF
:1019300061430091D9F800108A683240921BB2FAD4
:1019400082F25209AA423DD0074618F1010031D077
:10195000FEF7A0FEC01BA04238D2009800990028D4
:10196000A1F101010091D9F80010896808BF04466F
:1019700001EA0600801BB0FA80F04009A842E7D1D6
:1019800020E000BF88683040801BB0FA80F040093A
:10199000A84217D088683040801BB0FA80F0400918
:1019A000A8420FD088683040801BB0FA80F0400910
:1019B000A84207D088683040801BB0FA80F0400908
:1019C000A842DFD1002001B0BDE8F083D9E90001D1
:1019D0004268B1F5827F22F0E00242600BD1D9F873
:1019E0000810B1F5004F02D0B1F5806F03D1016846
:1019F00021F040010160D9F82810B1F5005F07D14E
:101A0000016821F400510160016841F40051016056
:101A1000012089F85100002089F85000032001B00E
:101A2000BDE8F08370470000FEF73ABEB0B592B053
:101A3000002443F64000CDE90A44CDE9084405946A
:101A4000CDE90344CDE901440094C4F202000168E9
:101A5000022541F080510160006800F08050009044
:101A6000009847F200000094C4F20000016841F4BD
:101A700080410160006800F48040009000980120DF
:101A800006904FF4803007904FF480000D900620B0
:101A90000E90A820CDE90F050420119006A80C9502
:101AA000FEF79EFF10B172B6FEE700BF0F20CDE932
:101AB00001054FF4A05004904FF48050059001A808
:101AC00005210394FEF7A6FE10B172B6FEE700BF33
:101AD00012B0B0BD4EF68850CEF20000016841F45D
:101AE0007001016070470000FEE70000FEF7E6FDB0
:101AF000FFF79CFFFFF77CFEFFF7C8FEFEF76AFCCE
:101B000000F0E0F800F002F8FAE7000070B582B0EB
:101B10000025C4F20205284610210022FEF7B4FD7C
:101B200040F2A0069220C2F200068DF802000DF1EC
:101B30000201304601226423FFF75CFB40F270048F
:101B4000C2F200043046214601226423FFF752FA14
:101B5000284610210122FEF797FD28461021002279
:101B6000FEF792FD93208DF803000DF1030130463E
:101B700001226423FFF73EFB611C304601226423EF
:101B8000FFF738FA284610210122FEF77DFD28468E
:101B900010210022FEF778FD94208DF8040001A9A1
:101BA000304601226423FFF725FBA11C30460122A9
:101BB0006423FFF71FFA284610210122FEF764FD77
:101BC000284610210022FEF75FFD95208DF80500C4
:101BD0000DF10501304601226423FFF70BFBE11CE8
:101BE000304601226423FFF705FA2846102101221E
:101BF000FEF74AFD284610210022FEF745FD9620FB
:101C00008DF806000DF10601304601226423FFF72E
:101C1000F1FA211D304601226423FFF7EBF9284633
:101C200010210122FEF730FD284610210022FEF788
:101C30002BFD97208DF807000DF10701304601229A
:101C40006423FFF7D7FA611D304601226423FFF7B2
:101C5000D1F9284610210122FEF716FDB4F9000043
:101C6000B4F9021047F6FF73B4F90420E080184479
:101C700000EE100AC81803EE100AD0189FED101AD3
:101C800004EE100AB8EEC00AB8EEC33AB8EEC44A81
:101C900020EE010ABAEE082A23EE013A24EE011AD8
:101CA00030EE020A33EE023A31EE021A21816281ED
:101CB00084ED030A84ED043A84ED051A02B070BD88
:101CC0008001C03970B582B040F20045C4F202050F
:101CD000284601210022FEF7D7FC40F2A006822010
:101CE000C2F200068DF802000DF102013046012219
:101CF0006423FFF77FFA40F28804C2F20004304602
:101D0000214601226423FFF775F9284601210122AB
:101D1000FEF7BAFC284601210022FEF7B5FC83201D
:101D20008DF803000DF10301304601226423FFF713
:101D300061FA611C304601226423FFF75BF92846F3
:101D400001210122FEF7A0FC284601210022FEF716
:101D50009BFC84208DF8040001A9304601226423F5
:101D6000FFF748FAA11C304601226423FFF742F92D
:101D7000284601210122FEF787FC28460121002286
:101D8000FEF782FC85208DF805000DF10501304637
:101D900001226423FFF72EFAE11C3046012264235E
:101DA000FFF728F9284601210122FEF76DFC28469D
:101DB00001210022FEF768FC86208DF806000DF157
:101DC0000601304601226423FFF714FA211D304634
:101DD00001226423FFF70EF9284601210122FEF7B4
:101DE00053FC284601210022FEF74EFC87208DF887
:101DF00007000DF10701304601226423FFF7FAF9CD
:101E0000611D304601226423FFF7F4F828460121C2
:101E10000122FEF739FCB4F90000B4F9021047F6CC
:101E2000FF73B4F90420E080184400EE100AC818CB
:101E300003EE100AD0189FED111A04EE100AB8EE46
:101E4000C00A9FED0F2AB8EEC33AB8EEC44A20EE9E
:101E5000010A23EE013A24EE011A30EE020A33EEB3
:101E6000023A31EE021A2181628184ED030A84ED87
:101E7000043A84ED051A02B070BD00BFF4017A3D4A
:101E80000000FAC4F1EE100A4FF6FF71C0F2C03143
:101E900020EA010040F04070E1EE100A70470000B7
:101EA000000000000000010203040607080900000A
:101EB000D01E00080000002010000000C40100082F
:101EC000E01E000810000020F0060000E0010008FD
:101ED00001000000100000000024F40000000000D9
:040000050800018965
:00000001FF
